{
  "_format": "hh-sol-artifact-1",
  "contractName": "Payments",
  "sourceName": "contracts/Payments.sol",
  "abi": [
    {
      "anonymous": false,
      "inputs": [
        {
          "indexed": false,
          "internalType": "address",
          "name": "from",
          "type": "address"
        },
        {
          "indexed": false,
          "internalType": "address",
          "name": "to",
          "type": "address"
        },
        {
          "indexed": false,
          "internalType": "uint256",
          "name": "value",
          "type": "uint256"
        },
        {
          "indexed": false,
          "internalType": "string",
          "name": "note",
          "type": "string"
        },
        {
          "indexed": false,
          "internalType": "uint256",
          "name": "time",
          "type": "uint256"
        },
        {
          "indexed": false,
          "internalType": "string",
          "name": "ref",
          "type": "string"
        }
      ],
      "name": "Payment",
      "type": "event"
    },
    {
      "inputs": [],
      "name": "getAllPayments",
      "outputs": [
        {
          "components": [
            {
              "internalType": "address",
              "name": "payer",
              "type": "address"
            },
            {
              "internalType": "address",
              "name": "payee",
              "type": "address"
            },
            {
              "internalType": "uint256",
              "name": "value",
              "type": "uint256"
            },
            {
              "internalType": "string",
              "name": "note",
              "type": "string"
            },
            {
              "internalType": "uint256",
              "name": "time",
              "type": "uint256"
            },
            {
              "internalType": "string",
              "name": "ref",
              "type": "string"
            }
          ],
          "internalType": "struct Payments.PaymentInfoStruct[]",
          "name": "",
          "type": "tuple[]"
        }
      ],
      "stateMutability": "view",
      "type": "function"
    },
    {
      "inputs": [],
      "name": "numOfPayments",
      "outputs": [
        {
          "internalType": "uint256",
          "name": "",
          "type": "uint256"
        }
      ],
      "stateMutability": "view",
      "type": "function"
    },
    {
      "inputs": [],
      "name": "paymentCount",
      "outputs": [
        {
          "internalType": "uint256",
          "name": "",
          "type": "uint256"
        }
      ],
      "stateMutability": "view",
      "type": "function"
    },
    {
      "inputs": [
        {
          "internalType": "address payable",
          "name": "recipient",
          "type": "address"
        },
        {
          "internalType": "uint256",
          "name": "amount",
          "type": "uint256"
        },
        {
          "internalType": "string",
          "name": "note",
          "type": "string"
        },
        {
          "internalType": "string",
          "name": "ref",
          "type": "string"
        }
      ],
      "name": "recordPayment",
      "outputs": [],
      "stateMutability": "nonpayable",
      "type": "function"
    }
  ],
  "bytecode": "0x608060405234801561001057600080fd5b50610e3f806100206000396000f3fe608060405234801561001057600080fd5b506004361061004c5760003560e01c80630937e68a14610051578063595d271b1461006f578063cc1890971461008d578063f8defa3c146100a9575b600080fd5b6100596100c7565b6040516100669190610572565b60405180910390f35b6100776100d0565b6040516100849190610572565b60405180910390f35b6100a760048036038101906100a29190610686565b6100d6565b005b6100b1610316565b6040516100be919061093f565b60405180910390f35b60008054905090565b60005481565b6000808154809291906100e890610990565b919050555060016040518060c001604052803373ffffffffffffffffffffffffffffffffffffffff1681526020018873ffffffffffffffffffffffffffffffffffffffff16815260200187815260200186868080601f016020809104026020016040519081016040528093929190818152602001838380828437600081840152601f19601f82011690508083019250505050505050815260200142815260200184848080601f016020809104026020016040519081016040528093929190818152602001838380828437600081840152601f19601f82011690508083019250505050505050815250908060018154018082558091505060019003906000526020600020906006020160009091909190915060008201518160000160006101000a81548173ffffffffffffffffffffffffffffffffffffffff021916908373ffffffffffffffffffffffffffffffffffffffff16021790555060208201518160010160006101000a81548173ffffffffffffffffffffffffffffffffffffffff021916908373ffffffffffffffffffffffffffffffffffffffff1602179055506040820151816002015560608201518160030190816102a69190610c13565b506080820151816004015560a08201518160050190816102c69190610c13565b5050507fabecc2e2e102218d3a5bf5c5a067ccab7b1a3ca963960230e992f4eae52b23ec3387878787428888604051610306989796959493929190610d96565b60405180910390a1505050505050565b60606001805480602002602001604051908101604052809291908181526020016000905b8282101561055057838290600052602060002090600602016040518060c00160405290816000820160009054906101000a900473ffffffffffffffffffffffffffffffffffffffff1673ffffffffffffffffffffffffffffffffffffffff1673ffffffffffffffffffffffffffffffffffffffff1681526020016001820160009054906101000a900473ffffffffffffffffffffffffffffffffffffffff1673ffffffffffffffffffffffffffffffffffffffff1673ffffffffffffffffffffffffffffffffffffffff1681526020016002820154815260200160038201805461042390610a36565b80601f016020809104026020016040519081016040528092919081815260200182805461044f90610a36565b801561049c5780601f106104715761010080835404028352916020019161049c565b820191906000526020600020905b81548152906001019060200180831161047f57829003601f168201915b50505050508152602001600482015481526020016005820180546104bf90610a36565b80601f01602080910402602001604051908101604052809291908181526020018280546104eb90610a36565b80156105385780601f1061050d57610100808354040283529160200191610538565b820191906000526020600020905b81548152906001019060200180831161051b57829003601f168201915b5050505050815250508152602001906001019061033a565b50505050905090565b6000819050919050565b61056c81610559565b82525050565b60006020820190506105876000830184610563565b92915050565b600080fd5b600080fd5b600073ffffffffffffffffffffffffffffffffffffffff82169050919050565b60006105c282610597565b9050919050565b6105d2816105b7565b81146105dd57600080fd5b50565b6000813590506105ef816105c9565b92915050565b6105fe81610559565b811461060957600080fd5b50565b60008135905061061b816105f5565b92915050565b600080fd5b600080fd5b600080fd5b60008083601f84011261064657610645610621565b5b8235905067ffffffffffffffff81111561066357610662610626565b5b60208301915083600182028301111561067f5761067e61062b565b5b9250929050565b600080600080600080608087890312156106a3576106a261058d565b5b60006106b189828a016105e0565b96505060206106c289828a0161060c565b955050604087013567ffffffffffffffff8111156106e3576106e2610592565b5b6106ef89828a01610630565b9450945050606087013567ffffffffffffffff81111561071257610711610592565b5b61071e89828a01610630565b92509250509295509295509295565b600081519050919050565b600082825260208201905092915050565b6000819050602082019050919050565b600061076482610597565b9050919050565b61077481610759565b82525050565b61078381610559565b82525050565b600081519050919050565b600082825260208201905092915050565b60005b838110156107c35780820151818401526020810190506107a8565b60008484015250505050565b6000601f19601f8301169050919050565b60006107eb82610789565b6107f58185610794565b93506108058185602086016107a5565b61080e816107cf565b840191505092915050565b600060c083016000830151610831600086018261076b565b506020830151610844602086018261076b565b506040830151610857604086018261077a565b506060830151848203606086015261086f82826107e0565b9150506080830151610884608086018261077a565b5060a083015184820360a086015261089c82826107e0565b9150508091505092915050565b60006108b58383610819565b905092915050565b6000602082019050919050565b60006108d58261072d565b6108df8185610738565b9350836020820285016108f185610749565b8060005b8581101561092d578484038952815161090e85826108a9565b9450610919836108bd565b925060208a019950506001810190506108f5565b50829750879550505050505092915050565b6000602082019050818103600083015261095981846108ca565b905092915050565b7f4e487b7100000000000000000000000000000000000000000000000000000000600052601160045260246000fd5b600061099b82610559565b91507fffffffffffffffffffffffffffffffffffffffffffffffffffffffffffffffff82036109cd576109cc610961565b5b600182019050919050565b7f4e487b7100000000000000000000000000000000000000000000000000000000600052604160045260246000fd5b7f4e487b7100000000000000000000000000000000000000000000000000000000600052602260045260246000fd5b60006002820490506001821680610a4e57607f821691505b602082108103610a6157610a60610a07565b5b50919050565b60008190508160005260206000209050919050565b60006020601f8301049050919050565b600082821b905092915050565b600060088302610ac97fffffffffffffffffffffffffffffffffffffffffffffffffffffffffffffffff82610a8c565b610ad38683610a8c565b95508019841693508086168417925050509392505050565b6000819050919050565b6000610b10610b0b610b0684610559565b610aeb565b610559565b9050919050565b6000819050919050565b610b2a83610af5565b610b3e610b3682610b17565b848454610a99565b825550505050565b600090565b610b53610b46565b610b5e818484610b21565b505050565b5b81811015610b8257610b77600082610b4b565b600181019050610b64565b5050565b601f821115610bc757610b9881610a67565b610ba184610a7c565b81016020851015610bb0578190505b610bc4610bbc85610a7c565b830182610b63565b50505b505050565b600082821c905092915050565b6000610bea60001984600802610bcc565b1980831691505092915050565b6000610c038383610bd9565b9150826002028217905092915050565b610c1c82610789565b67ffffffffffffffff811115610c3557610c346109d8565b5b610c3f8254610a36565b610c4a828285610b86565b600060209050601f831160018114610c7d5760008415610c6b578287015190505b610c758582610bf7565b865550610cdd565b601f198416610c8b86610a67565b60005b82811015610cb357848901518255600182019150602085019450602081019050610c8e565b86831015610cd05784890151610ccc601f891682610bd9565b8355505b6001600288020188555050505b505050505050565b610cee81610759565b82525050565b6000610d0f610d0a610d0584610597565b610aeb565b610597565b9050919050565b6000610d2182610cf4565b9050919050565b6000610d3382610d16565b9050919050565b610d4381610d28565b82525050565b600082825260208201905092915050565b82818337600083830152505050565b6000610d758385610d49565b9350610d82838584610d5a565b610d8b836107cf565b840190509392505050565b600060c082019050610dab600083018b610ce5565b610db8602083018a610d3a565b610dc56040830189610563565b8181036060830152610dd8818789610d69565b9050610de76080830186610563565b81810360a0830152610dfa818486610d69565b9050999850505050505050505056fea2646970667358221220171472cfb82241ac4387420596ae2318b3144f817c23e3cbd113d4928b1f58d064736f6c63430008180033",
  "linkReferences": {},
  "deployedLinkReferences": {}
}